{
  "_format": "hh-sol-artifact-1",
  "contractName": "HumanAgentINFT",
  "sourceName": "contracts/HumanAgentINFT.sol",
  "abi": [
    {
      "inputs": [
        {
          "internalType": "string",
          "name": "name_",
          "type": "string"
        },
        {
          "internalType": "string",
          "name": "symbol_",
          "type": "string"
        },
        {
          "internalType": "address",
          "name": "oracle_",
          "type": "address"
        }
      ],
      "stateMutability": "nonpayable",
      "type": "constructor"
    },
    {
      "inputs": [
        {
          "internalType": "address",
          "name": "sender",
          "type": "address"
        },
        {
          "internalType": "uint256",
          "name": "tokenId",
          "type": "uint256"
        },
        {
          "internalType": "address",
          "name": "owner",
          "type": "address"
        }
      ],
      "name": "ERC721IncorrectOwner",
      "type": "error"
    },
    {
      "inputs": [
        {
          "internalType": "address",
          "name": "operator",
          "type": "address"
        },
        {
          "internalType": "uint256",
          "name": "tokenId",
          "type": "uint256"
        }
      ],
      "name": "ERC721InsufficientApproval",
      "type": "error"
    },
    {
      "inputs": [
        {
          "internalType": "address",
          "name": "approver",
          "type": "address"
        }
      ],
      "name": "ERC721InvalidApprover",
      "type": "error"
    },
    {
      "inputs": [
        {
          "internalType": "address",
          "name": "operator",
          "type": "address"
        }
      ],
      "name": "ERC721InvalidOperator",
      "type": "error"
    },
    {
      "inputs": [
        {
          "internalType": "address",
          "name": "owner",
          "type": "address"
        }
      ],
      "name": "ERC721InvalidOwner",
      "type": "error"
    },
    {
      "inputs": [
        {
          "internalType": "address",
          "name": "receiver",
          "type": "address"
        }
      ],
      "name": "ERC721InvalidReceiver",
      "type": "error"
    },
    {
      "inputs": [
        {
          "internalType": "address",
          "name": "sender",
          "type": "address"
        }
      ],
      "name": "ERC721InvalidSender",
      "type": "error"
    },
    {
      "inputs": [
        {
          "internalType": "uint256",
          "name": "tokenId",
          "type": "uint256"
        }
      ],
      "name": "ERC721NonexistentToken",
      "type": "error"
    },
    {
      "inputs": [
        {
          "internalType": "address",
          "name": "owner",
          "type": "address"
        }
      ],
      "name": "OwnableInvalidOwner",
      "type": "error"
    },
    {
      "inputs": [
        {
          "internalType": "address",
          "name": "account",
          "type": "address"
        }
      ],
      "name": "OwnableUnauthorizedAccount",
      "type": "error"
    },
    {
      "inputs": [],
      "name": "ReentrancyGuardReentrantCall",
      "type": "error"
    },
    {
      "anonymous": false,
      "inputs": [
        {
          "indexed": true,
          "internalType": "address",
          "name": "owner",
          "type": "address"
        },
        {
          "indexed": true,
          "internalType": "address",
          "name": "approved",
          "type": "address"
        },
        {
          "indexed": true,
          "internalType": "uint256",
          "name": "tokenId",
          "type": "uint256"
        }
      ],
      "name": "Approval",
      "type": "event"
    },
    {
      "anonymous": false,
      "inputs": [
        {
          "indexed": true,
          "internalType": "address",
          "name": "owner",
          "type": "address"
        },
        {
          "indexed": true,
          "internalType": "address",
          "name": "operator",
          "type": "address"
        },
        {
          "indexed": false,
          "internalType": "bool",
          "name": "approved",
          "type": "bool"
        }
      ],
      "name": "ApprovalForAll",
      "type": "event"
    },
    {
      "anonymous": false,
      "inputs": [
        {
          "indexed": true,
          "internalType": "uint256",
          "name": "tokenId",
          "type": "uint256"
        },
        {
          "indexed": false,
          "internalType": "bytes32",
          "name": "newHash",
          "type": "bytes32"
        },
        {
          "indexed": false,
          "internalType": "string",
          "name": "newURI",
          "type": "string"
        }
      ],
      "name": "MetadataUpdated",
      "type": "event"
    },
    {
      "anonymous": false,
      "inputs": [
        {
          "indexed": true,
          "internalType": "uint256",
          "name": "tokenId",
          "type": "uint256"
        },
        {
          "indexed": true,
          "internalType": "address",
          "name": "to",
          "type": "address"
        },
        {
          "indexed": false,
          "internalType": "string",
          "name": "encryptedURI",
          "type": "string"
        },
        {
          "indexed": false,
          "internalType": "bytes32",
          "name": "metadataHash",
          "type": "bytes32"
        }
      ],
      "name": "Minted",
      "type": "event"
    },
    {
      "anonymous": false,
      "inputs": [
        {
          "indexed": true,
          "internalType": "address",
          "name": "previousOwner",
          "type": "address"
        },
        {
          "indexed": true,
          "internalType": "address",
          "name": "newOwner",
          "type": "address"
        }
      ],
      "name": "OwnershipTransferred",
      "type": "event"
    },
    {
      "anonymous": false,
      "inputs": [
        {
          "indexed": true,
          "internalType": "address",
          "name": "from",
          "type": "address"
        },
        {
          "indexed": true,
          "internalType": "address",
          "name": "to",
          "type": "address"
        },
        {
          "indexed": true,
          "internalType": "uint256",
          "name": "tokenId",
          "type": "uint256"
        }
      ],
      "name": "Transfer",
      "type": "event"
    },
    {
      "inputs": [
        {
          "internalType": "address",
          "name": "to",
          "type": "address"
        },
        {
          "internalType": "uint256",
          "name": "tokenId",
          "type": "uint256"
        }
      ],
      "name": "approve",
      "outputs": [],
      "stateMutability": "nonpayable",
      "type": "function"
    },
    {
      "inputs": [
        {
          "internalType": "address",
          "name": "owner",
          "type": "address"
        }
      ],
      "name": "balanceOf",
      "outputs": [
        {
          "internalType": "uint256",
          "name": "",
          "type": "uint256"
        }
      ],
      "stateMutability": "view",
      "type": "function"
    },
    {
      "inputs": [
        {
          "internalType": "uint256",
          "name": "tokenId",
          "type": "uint256"
        }
      ],
      "name": "getApproved",
      "outputs": [
        {
          "internalType": "address",
          "name": "",
          "type": "address"
        }
      ],
      "stateMutability": "view",
      "type": "function"
    },
    {
      "inputs": [
        {
          "internalType": "uint256",
          "name": "tokenId",
          "type": "uint256"
        }
      ],
      "name": "getEncryptedURI",
      "outputs": [
        {
          "internalType": "string",
          "name": "",
          "type": "string"
        }
      ],
      "stateMutability": "view",
      "type": "function"
    },
    {
      "inputs": [
        {
          "internalType": "uint256",
          "name": "tokenId",
          "type": "uint256"
        }
      ],
      "name": "getMetadataHash",
      "outputs": [
        {
          "internalType": "bytes32",
          "name": "",
          "type": "bytes32"
        }
      ],
      "stateMutability": "view",
      "type": "function"
    },
    {
      "inputs": [
        {
          "internalType": "address",
          "name": "owner",
          "type": "address"
        },
        {
          "internalType": "address",
          "name": "operator",
          "type": "address"
        }
      ],
      "name": "isApprovedForAll",
      "outputs": [
        {
          "internalType": "bool",
          "name": "",
          "type": "bool"
        }
      ],
      "stateMutability": "view",
      "type": "function"
    },
    {
      "inputs": [
        {
          "internalType": "address",
          "name": "to",
          "type": "address"
        },
        {
          "internalType": "string",
          "name": "encryptedURI",
          "type": "string"
        },
        {
          "internalType": "bytes32",
          "name": "metadataHash",
          "type": "bytes32"
        }
      ],
      "name": "mint",
      "outputs": [
        {
          "internalType": "uint256",
          "name": "",
          "type": "uint256"
        }
      ],
      "stateMutability": "nonpayable",
      "type": "function"
    },
    {
      "inputs": [],
      "name": "name",
      "outputs": [
        {
          "internalType": "string",
          "name": "",
          "type": "string"
        }
      ],
      "stateMutability": "view",
      "type": "function"
    },
    {
      "inputs": [],
      "name": "oracle",
      "outputs": [
        {
          "internalType": "address",
          "name": "",
          "type": "address"
        }
      ],
      "stateMutability": "view",
      "type": "function"
    },
    {
      "inputs": [],
      "name": "owner",
      "outputs": [
        {
          "internalType": "address",
          "name": "",
          "type": "address"
        }
      ],
      "stateMutability": "view",
      "type": "function"
    },
    {
      "inputs": [
        {
          "internalType": "uint256",
          "name": "tokenId",
          "type": "uint256"
        }
      ],
      "name": "ownerOf",
      "outputs": [
        {
          "internalType": "address",
          "name": "",
          "type": "address"
        }
      ],
      "stateMutability": "view",
      "type": "function"
    },
    {
      "inputs": [],
      "name": "renounceOwnership",
      "outputs": [],
      "stateMutability": "nonpayable",
      "type": "function"
    },
    {
      "inputs": [
        {
          "internalType": "address",
          "name": "from",
          "type": "address"
        },
        {
          "internalType": "address",
          "name": "to",
          "type": "address"
        },
        {
          "internalType": "uint256",
          "name": "tokenId",
          "type": "uint256"
        }
      ],
      "name": "safeTransferFrom",
      "outputs": [],
      "stateMutability": "nonpayable",
      "type": "function"
    },
    {
      "inputs": [
        {
          "internalType": "address",
          "name": "from",
          "type": "address"
        },
        {
          "internalType": "address",
          "name": "to",
          "type": "address"
        },
        {
          "internalType": "uint256",
          "name": "tokenId",
          "type": "uint256"
        },
        {
          "internalType": "bytes",
          "name": "data",
          "type": "bytes"
        }
      ],
      "name": "safeTransferFrom",
      "outputs": [],
      "stateMutability": "nonpayable",
      "type": "function"
    },
    {
      "inputs": [
        {
          "internalType": "address",
          "name": "operator",
          "type": "address"
        },
        {
          "internalType": "bool",
          "name": "approved",
          "type": "bool"
        }
      ],
      "name": "setApprovalForAll",
      "outputs": [],
      "stateMutability": "nonpayable",
      "type": "function"
    },
    {
      "inputs": [
        {
          "internalType": "bytes4",
          "name": "interfaceId",
          "type": "bytes4"
        }
      ],
      "name": "supportsInterface",
      "outputs": [
        {
          "internalType": "bool",
          "name": "",
          "type": "bool"
        }
      ],
      "stateMutability": "view",
      "type": "function"
    },
    {
      "inputs": [],
      "name": "symbol",
      "outputs": [
        {
          "internalType": "string",
          "name": "",
          "type": "string"
        }
      ],
      "stateMutability": "view",
      "type": "function"
    },
    {
      "inputs": [
        {
          "internalType": "uint256",
          "name": "tokenId",
          "type": "uint256"
        }
      ],
      "name": "tokenURI",
      "outputs": [
        {
          "internalType": "string",
          "name": "",
          "type": "string"
        }
      ],
      "stateMutability": "view",
      "type": "function"
    },
    {
      "inputs": [
        {
          "internalType": "address",
          "name": "from",
          "type": "address"
        },
        {
          "internalType": "address",
          "name": "to",
          "type": "address"
        },
        {
          "internalType": "uint256",
          "name": "tokenId",
          "type": "uint256"
        }
      ],
      "name": "transferFrom",
      "outputs": [],
      "stateMutability": "nonpayable",
      "type": "function"
    },
    {
      "inputs": [
        {
          "internalType": "address",
          "name": "newOwner",
          "type": "address"
        }
      ],
      "name": "transferOwnership",
      "outputs": [],
      "stateMutability": "nonpayable",
      "type": "function"
    },
    {
      "inputs": [
        {
          "internalType": "address",
          "name": "from",
          "type": "address"
        },
        {
          "internalType": "address",
          "name": "to",
          "type": "address"
        },
        {
          "internalType": "uint256",
          "name": "tokenId",
          "type": "uint256"
        },
        {
          "internalType": "bytes",
          "name": "sealedKey",
          "type": "bytes"
        },
        {
          "internalType": "bytes",
          "name": "proof",
          "type": "bytes"
        }
      ],
      "name": "transferWithProof",
      "outputs": [],
      "stateMutability": "nonpayable",
      "type": "function"
    }
  ],
  "bytecode": "0x60806040526001600b553480156200001657600080fd5b5060405162001b1c38038062001b1c8339810160408190526200003991620001df565b33838360006200004a8382620002fd565b506001620000598282620002fd565b5050506001600160a01b0381166200008b57604051631e4fbdf760e01b81526000600482015260240160405180910390fd5b6200009681620000c5565b506001600755600a80546001600160a01b0319166001600160a01b039290921691909117905550620003c99050565b600680546001600160a01b038381166001600160a01b0319831681179093556040519116919082907f8be0079c531659141344cd1fd0a4f28419497f9722a3daafe3b4186f6b6457e090600090a35050565b634e487b7160e01b600052604160045260246000fd5b600082601f8301126200013f57600080fd5b81516001600160401b03808211156200015c576200015c62000117565b604051601f8301601f19908116603f0116810190828211818310171562000187576200018762000117565b8160405283815260209250866020858801011115620001a557600080fd5b600091505b83821015620001c95785820183015181830184015290820190620001aa565b6000602085830101528094505050505092915050565b600080600060608486031215620001f557600080fd5b83516001600160401b03808211156200020d57600080fd5b6200021b878388016200012d565b945060208601519150808211156200023257600080fd5b5062000241868287016200012d565b604086015190935090506001600160a01b03811681146200026157600080fd5b809150509250925092565b600181811c908216806200028157607f821691505b602082108103620002a257634e487b7160e01b600052602260045260246000fd5b50919050565b601f821115620002f8576000816000526020600020601f850160051c81016020861015620002d35750805b601f850160051c820191505b81811015620002f457828155600101620002df565b5050505b505050565b81516001600160401b0381111562000319576200031962000117565b62000331816200032a84546200026c565b84620002a8565b602080601f831160018114620003695760008415620003505750858301515b600019600386901b1c1916600185901b178555620002f4565b600085815260208120601f198616915b828110156200039a5788860151825594840194600190910190840162000379565b5085821015620003b95787850151600019600388901b60f8161c191681555b5050505050600190811b01905550565b61174380620003d96000396000f3fe608060405234801561001057600080fd5b50600436106101375760003560e01c806388d3c763116100b8578063b88d4fde1161007c578063b88d4fde14610280578063c87b56dd1461026d578063d34047b614610293578063e985e9c5146102a6578063f2fde38b146102b9578063f448f871146102cc57600080fd5b806388d3c7631461022e5780638da5cb5b1461024157806395d89b4114610252578063a22cb4651461025a578063acbb3f7c1461026d57600080fd5b806342842e0e116100ff57806342842e0e146101cc5780636352211e146101df57806370a08231146101f2578063715018a6146102135780637dc0d1d01461021b57600080fd5b806301ffc9a71461013c57806306fdde0314610164578063081812fc14610179578063095ea7b3146101a457806323b872dd146101b9575b600080fd5b61014f61014a366004611049565b6102df565b60405190151581526020015b60405180910390f35b61016c610331565b60405161015b91906110b3565b61018c6101873660046110c6565b6103c3565b6040516001600160a01b03909116815260200161015b565b6101b76101b23660046110fb565b6103ec565b005b6101b76101c7366004611125565b6103fb565b6101b76101da366004611125565b61048b565b61018c6101ed3660046110c6565b6104ab565b610205610200366004611161565b6104b6565b60405190815260200161015b565b6101b76104fe565b600a5461018c906001600160a01b031681565b6101b761023c3660046111c5565b610512565b6006546001600160a01b031661018c565b61016c610711565b6101b761026836600461126e565b610720565b61016c61027b3660046110c6565b61072b565b6101b761028e3660046112bb565b6107d5565b6102056102a1366004611397565b6107ed565b61014f6102b43660046113f1565b6108df565b6101b76102c7366004611161565b61090d565b6102056102da3660046110c6565b61094b565b60006001600160e01b031982166380ac58cd60e01b148061031057506001600160e01b03198216635b5e139f60e01b145b8061032b57506301ffc9a760e01b6001600160e01b03198316145b92915050565b60606000805461034090611424565b80601f016020809104026020016040519081016040528092919081815260200182805461036c90611424565b80156103b95780601f1061038e576101008083540402835291602001916103b9565b820191906000526020600020905b81548152906001019060200180831161039c57829003601f168201915b5050505050905090565b60006103ce8261096a565b506000828152600460205260409020546001600160a01b031661032b565b6103f78282336109a3565b5050565b6001600160a01b03821661042a57604051633250574960e11b8152600060048201526024015b60405180910390fd5b60006104378383336109b0565b9050836001600160a01b0316816001600160a01b031614610485576040516364283d7b60e01b81526001600160a01b0380861660048301526024820184905282166044820152606401610421565b50505050565b6104a6838383604051806020016040528060008152506107d5565b505050565b600061032b8261096a565b60006001600160a01b0382166104e2576040516322718ad960e21b815260006004820152602401610421565b506001600160a01b031660009081526003602052604090205490565b610506610aa9565b6105106000610ad6565b565b61051a610b28565b866001600160a01b031661052d866104ab565b6001600160a01b03161461056f5760405162461bcd60e51b81526020600482015260096024820152682737ba1037bbb732b960b91b6044820152606401610421565b336001600160a01b038816148061059057506006546001600160a01b031633145b6105d25760405162461bcd60e51b81526020600482015260136024820152722ab730baba3437b934bd32b21031b0b63632b960691b6044820152606401610421565b600a54604051632ae132ff60e11b81526001600160a01b03909116906355c265fe906106049085908590600401611487565b602060405180830381865afa158015610621573d6000803e3d6000fd5b505050506040513d601f19601f82011682018060405250810190610645919061149b565b6106815760405162461bcd60e51b815260206004820152600d60248201526c24b73b30b634b210383937b7b360991b6044820152606401610421565b600084846040516106939291906114b8565b60408051918290038220600089815260086020908152838220839055600990529190912090925087917f544e9ec8951d49ec0e2f8635d88acaa665652a3d0dcc9cef4c08bfc4239b4f57916106ea918591906114c8565b60405180910390a26106fd888888610b52565b506107086001600755565b50505050505050565b60606001805461034090611424565b6103f7338383610c02565b60606107368261096a565b506000828152600960205260409020805461075090611424565b80601f016020809104026020016040519081016040528092919081815260200182805461077c90611424565b80156107c95780601f1061079e576101008083540402835291602001916107c9565b820191906000526020600020905b8154815290600101906020018083116107ac57829003601f168201915b50505050509050919050565b6107e08484846103fb565b6104853385858585610ca1565b60006107f7610aa9565b6001600160a01b0385166108415760405162461bcd60e51b8152602060048201526011602482015270125b9d985b1a59081c9958da5c1a595b9d607a1b6044820152606401610421565b600b80546000918261085283611560565b9190505590506108628682610dcc565b600081815260096020526040902061087b8587836115cf565b5060008181526008602052604090819020849055516001600160a01b0387169082907f3d800b867b433b2e8240ce323693c9fa286158c369d66db0b047f69396b6c1c0906108ce9089908990899061168f565b60405180910390a395945050505050565b6001600160a01b03918216600090815260056020908152604080832093909416825291909152205460ff1690565b610915610aa9565b6001600160a01b03811661093f57604051631e4fbdf760e01b815260006004820152602401610421565b61094881610ad6565b50565b60006109568261096a565b505060009081526008602052604090205490565b6000818152600260205260408120546001600160a01b03168061032b57604051637e27328960e01b815260048101849052602401610421565b6104a68383836001610de6565b6000828152600260205260408120546001600160a01b03908116908316156109dd576109dd818486610eec565b6001600160a01b03811615610a1b576109fa600085600080610de6565b6001600160a01b038116600090815260036020526040902080546000190190555b6001600160a01b03851615610a4a576001600160a01b0385166000908152600360205260409020805460010190555b60008481526002602052604080822080546001600160a01b0319166001600160a01b0389811691821790925591518793918516917fddf252ad1be2c89b69c2b068fc378daa952ba7f163c4a11628f55a4df523b3ef91a4949350505050565b6006546001600160a01b031633146105105760405163118cdaa760e01b8152336004820152602401610421565b600680546001600160a01b038381166001600160a01b0319831681179093556040519116919082907f8be0079c531659141344cd1fd0a4f28419497f9722a3daafe3b4186f6b6457e090600090a35050565b600260075403610b4b57604051633ee5aeb560e01b815260040160405180910390fd5b6002600755565b6001600160a01b038216610b7c57604051633250574960e11b815260006004820152602401610421565b6000610b8a838360006109b0565b90506001600160a01b038116610bb657604051637e27328960e01b815260048101839052602401610421565b836001600160a01b0316816001600160a01b031614610485576040516364283d7b60e01b81526001600160a01b0380861660048301526024820184905282166044820152606401610421565b6001600160a01b038216610c3457604051630b61174360e31b81526001600160a01b0383166004820152602401610421565b6001600160a01b03838116600081815260056020908152604080832094871680845294825291829020805460ff191686151590811790915591519182527f17307eab39ab6107e8899845ad3d59bd9653f200f220920489ca2b5937696c31910160405180910390a3505050565b6001600160a01b0383163b15610dc557604051630a85bd0160e11b81526001600160a01b0384169063150b7a0290610ce39088908890879087906004016116b3565b6020604051808303816000875af1925050508015610d1e575060408051601f3d908101601f19168201909252610d1b918101906116f0565b60015b610d87573d808015610d4c576040519150601f19603f3d011682016040523d82523d6000602084013e610d51565b606091505b508051600003610d7f57604051633250574960e11b81526001600160a01b0385166004820152602401610421565b805160208201fd5b6001600160e01b03198116630a85bd0160e11b14610dc357604051633250574960e11b81526001600160a01b0385166004820152602401610421565b505b5050505050565b6103f7828260405180602001604052806000815250610f50565b8080610dfa57506001600160a01b03821615155b15610ebc576000610e0a8461096a565b90506001600160a01b03831615801590610e365750826001600160a01b0316816001600160a01b031614155b8015610e495750610e4781846108df565b155b15610e725760405163a9fbf51f60e01b81526001600160a01b0384166004820152602401610421565b8115610eba5783856001600160a01b0316826001600160a01b03167f8c5be1e5ebec7d5bd14f71427d1e84f3dd0314c0f7b2291e5b200ac8c7c3b92560405160405180910390a45b505b5050600090815260046020526040902080546001600160a01b0319166001600160a01b0392909216919091179055565b610ef7838383610f68565b6104a6576001600160a01b038316610f2557604051637e27328960e01b815260048101829052602401610421565b60405163177e802f60e01b81526001600160a01b038316600482015260248101829052604401610421565b610f5a8383610fce565b6104a6336000858585610ca1565b60006001600160a01b03831615801590610fc65750826001600160a01b0316846001600160a01b03161480610fa25750610fa284846108df565b80610fc657506000828152600460205260409020546001600160a01b038481169116145b949350505050565b6001600160a01b038216610ff857604051633250574960e11b815260006004820152602401610421565b6000611006838360006109b0565b90506001600160a01b038116156104a6576040516339e3563760e11b815260006004820152602401610421565b6001600160e01b03198116811461094857600080fd5b60006020828403121561105b57600080fd5b813561106681611033565b9392505050565b6000815180845260005b8181101561109357602081850181015186830182015201611077565b506000602082860101526020601f19601f83011685010191505092915050565b602081526000611066602083018461106d565b6000602082840312156110d857600080fd5b5035919050565b80356001600160a01b03811681146110f657600080fd5b919050565b6000806040838503121561110e57600080fd5b611117836110df565b946020939093013593505050565b60008060006060848603121561113a57600080fd5b611143846110df565b9250611151602085016110df565b9150604084013590509250925092565b60006020828403121561117357600080fd5b611066826110df565b60008083601f84011261118e57600080fd5b50813567ffffffffffffffff8111156111a657600080fd5b6020830191508360208285010111156111be57600080fd5b9250929050565b600080600080600080600060a0888a0312156111e057600080fd5b6111e9886110df565b96506111f7602089016110df565b955060408801359450606088013567ffffffffffffffff8082111561121b57600080fd5b6112278b838c0161117c565b909650945060808a013591508082111561124057600080fd5b5061124d8a828b0161117c565b989b979a50959850939692959293505050565b801515811461094857600080fd5b6000806040838503121561128157600080fd5b61128a836110df565b9150602083013561129a81611260565b809150509250929050565b634e487b7160e01b600052604160045260246000fd5b600080600080608085870312156112d157600080fd5b6112da856110df565b93506112e8602086016110df565b925060408501359150606085013567ffffffffffffffff8082111561130c57600080fd5b818701915087601f83011261132057600080fd5b813581811115611332576113326112a5565b604051601f8201601f19908116603f0116810190838211818310171561135a5761135a6112a5565b816040528281528a602084870101111561137357600080fd5b82602086016020830137600060208483010152809550505050505092959194509250565b600080600080606085870312156113ad57600080fd5b6113b6856110df565b9350602085013567ffffffffffffffff8111156113d257600080fd5b6113de8782880161117c565b9598909750949560400135949350505050565b6000806040838503121561140457600080fd5b61140d836110df565b915061141b602084016110df565b90509250929050565b600181811c9082168061143857607f821691505b60208210810361145857634e487b7160e01b600052602260045260246000fd5b50919050565b81835281816020850137506000828201602090810191909152601f909101601f19169091010190565b602081526000610fc660208301848661145e565b6000602082840312156114ad57600080fd5b815161106681611260565b8183823760009101908152919050565b8281526000602060406020840152600084546114e381611424565b8060408701526060600180841660008114611505576001811461152157611551565b60ff19851660608a0152606084151560051b8a01019550611551565b89600052602060002060005b858110156115485781548b820186015290830190880161152d565b8a016060019650505b50939998505050505050505050565b60006001820161158057634e487b7160e01b600052601160045260246000fd5b5060010190565b601f8211156104a6576000816000526020600020601f850160051c810160208610156115b05750805b601f850160051c820191505b81811015610dc3578281556001016115bc565b67ffffffffffffffff8311156115e7576115e76112a5565b6115fb836115f58354611424565b83611587565b6000601f84116001811461162f57600085156116175750838201355b600019600387901b1c1916600186901b178355610dc5565b600083815260209020601f19861690835b828110156116605786850135825560209485019460019092019101611640565b508682101561167d5760001960f88860031b161c19848701351681555b505060018560011b0183555050505050565b6040815260006116a360408301858761145e565b9050826020830152949350505050565b6001600160a01b03858116825284166020820152604081018390526080606082018190526000906116e69083018461106d565b9695505050505050565b60006020828403121561170257600080fd5b81516110668161103356fea264697066735822122005e3a4782faa1adb3ba6860624029989978f2af7b6f80ca61f808c2a7128aebc64736f6c63430008180033",
  "linkReferences": {},
  "deployedLinkReferences": {}
}